:020000041000EA
:1000000000B5324B212058609868022188439860DF
:10001000D860186158612E4B002199600221596106
:100020000121F02299502B49196001219960352056
:1000300000F044F80222904214D00621196600F024
:1000400034F8196E01211966002018661A6600F04E
:100050002CF8196E196E196E052000F02FF8012189
:100060000842F9D1002199601B49196000215960AB
:100070001A491B48016001219960EB211966A021F2
:10008000196600F012F800219960164914480160C1
:100090000121996001BC002800D000471248134993
:1000A000086003C880F30888084703B5996A0420EC
:1000B0000142FBD001200142F8D103BD02B5186610
:1000C0001866FFF7F2FF186E186E02BD00000240BE
:1000D000000000180000070000035F00212200005C
:1000E000F4000018222000A00001001008ED00E03C
:1000F00000000000000000000000000074B24E7A12
:1001000000200420F7010010C3010010C5010010F9
:10011000C1010010C1010010C1010010C101001097
:10012000C1010010C1010010C1010010C701001081
:10013000C1010010C1010010C9010010CB01001065
:10014000CD010010CD010010CD010010CD01001037
:10015000CD010010CD010010CD010010CD01001027
:10016000CD010010CD010010CD010010CD01001017
:10017000CD010010CD010010CD010010CD01001007
:10018000CD010010CD010010CD010010CD010010F7
:10019000CD010010CD010010CD010010CD010010E7
:1001A000CD010010CD010010CD010010CD010010D7
:1001B000CD010010CD010010CD010010CD010010C7
:1001C00000BE00BE00BE00BE00BE00BE00F051F882
:1001D000103800BEF2EB8871E0020010040300103A
:1001E0003402001090A31AE700202449086006C8D2
:1001F00081F30888104722480068002835D10DA4F3
:100200000ECC002902D000F012F8F9E71D491E4A71
:10021000002000E001C19142FCD11C4988471C49E3
:1002200088471C49884700BEFDE701C901C29A42C0
:10023000FBD3704704030010C0000020B08E0020E4
:10024000F4900010B08E0020B4970020F8990010B0
:100250000000042000000420F89900100010042081
:10026000001004200000000070470B4800F018F850
:100270000047EFF30580C0B27047000008ED00E0D2
:10028000000000D0B89700203C2A0320D92C002081
:1002900089010020C92D00205756000000000000F1
:1002A00001B40248844601BC604700BF11320020FF
:1002B00006005250ABB360536494002006005250C5
:1002C000861C030274940020060052505422A29D02
:1002D0008094002005005250DE65F468F899001003
:1002E0008C94002098940020B0020010A494002068
:1002F000BC020010C8020010D4020010309600208A
:04030000249600201F
:10030400F8B5C04606480749091A8B10C90FC91821
:1003140010B5491003D0044B002B00D0984710BDF2
:10032400B4970020B497002000000000054B10B5DE
:10033400002B03D00449054800E000BFFFF7E2FFAB
:1003440010BDC04600000000A8E50020B08E0020CB
:100354000022064B10B519201A6002F03DFDD0238F
:1003640080221B0692045A625A6110BDA0E5002047
:1003740010B504F07DFA012008F050F9F9E7C04601
:1003840070B50F4D0F4C002005F0F4FE002812D07C
:1003940040222900002005F0F9FE2100280000F089
:1003A4004BFD21000200002005F01EFF002005F097
:1003B400E1FE0028ECD1022008F030F9E3E7C04662
:1003C4003C9B00207C9B002010B582B006F0C2FB51
:1003D40000F0F2FA00F000FA06F034F801F0E8FA5E
:1003E400FFF7B6FF124B802401930323640022001D
:1003F400009310490023104807F058FC0F4B2200CB
:10040400019302230E4900930E48002307F04EFC8B
:100414000D4B2200019301230C4900930C48002347
:1004240007F044FC07F016FE002002B010BDC046E1
:100434003C29012008910020A9060020E42801207D
:10044400109100203101002048E100204C9200204E
:10045400410100200020704770B51800084C04AB1F
:100464001D88210000F0E8FC2B1C402D00D94023FE
:1004740022000021DBB2002005F0C8FC70BDC0469C
:100484007C9B0020F0B50500140083B0002920D126
:10049400137800205B069B0F022B01D003B0F0BD44
:1004A4005378012BFAD1637912791B021343072B7A
:1004B400F4D16B46084E9F1D31000222380003F030
:1004C4000BFB3200210028003B88083A05F0F2F8C3
:1004D400E4E70120E2E7C0465C9100207047C04693
:1004E40010B50248097802F091FDC046149100202D
:1004F40010B5014802F08AFD44910020004870477D
:10050400249300200048704700930020004870475F
:100514009C92002010B5002825D006282ED8184B10
:100524008000C458200008F0ABFDC0B2011C1F2895
:1005340014D8C9B200281FD00023124AE05C01334A
:100544001080D8B202328142F8D8C0230131C9B236
:1005540049009B000B430C48038010BD1F21C9B206
:100564000028E9D108E0064B02221968054803F087
:10057400B3FAC1239B00EEE7044BECE70020ECE761
:10058400849600202E9D00202C9D00200203000054
:10059400004870470892002010B50400052002F0BE
:1005A400B3FEFA21890002F085FF210002F082FFE8
:1005B400C823024A40080004D05010BD0000205057
:1005C40010B580240A4A0138640253682342FCD1DE
:1005D40010618020064A400253680342FCD1116135
:1005E4008021034A490053680B42FCD1136A10BDB1
:1005F4000000205080210B4A10B549020400013844
:1006040053680B42FCD180211061064A49005368AB
:100614000B42FCD1106A1F2C02D820231B1BD8408C
:1006240010BDC04600002050064B074AD8219A58F6
:100634001F2309321340054A5350D039136C194211
:10064400FCD17047D4E50020084000000000205091
:10065400064A074BD8219B581F221340054A535082
:10066400D039136C1942FCD07047C04608400000D2
:10067400D4E500200000205010B50621022002F02D
:1006840053FB0621032002F04FFB0022012103202B
:1006940002F06CFB10BDC046F0B5CE46474680B5AF
:1006A40000220121062087B002F060FB062002F040
:1006B40093FB2B4D2B4C6359002B0FD01F22D821B9
:1006C400294BE3581340294A5350D039136C19422B
:1006D400FCD007B0C0BCB946B046F0BD234E244997
:1006E400300006F04FFA204BC201E05080235B0239
:1006F400029303000F331B0313431E4A07001340E6
:100704008022D20513430393C0231B039946049309
:10071400194B0222059301230021984630000093CF
:10072400013306F0C1FA049B144A002113404A46DF
:10073400134330003A00049302AB06F0F7FA0520A5
:1007440002F0E2FD0E4902F0B5FEC823424640081D
:100754000004F05033689343134333606251ADE7B0
:100764000C400000D4E500200840000000002050A8
:1007740038930020FFFFFF9F63881144FFFF00C0F0
:1007840040420F0070B50F4B0F4D1048EA581F231D
:10079400110009310B40D8214350D0390C00036CAF
:1007A4001C401942FAD10A4EAB59002B00D170BD3E
:1007B400012103688B4303600649044806F05AFA92
:1007C400AC51F4E708400000D4E5002000002050BC
:1007D4000C4000003893002010B50221042002F0E0
:1007E400A3FA0221052002F09FFA0022012104202D
:1007F40002F0BCFA00220121052002F0B7FAE1213F
:100804000248490202F006FB10BDC04600800340C6
:10081400102110B50C002F4A93691C40194240D195
:100824002D48013493691942FCD113680355936927
:10083400194201D1402CF4D1002005F029F80028F8
:1008440034D00122254B00201A6005F0FBF88442C5
:1008540036D822000020224905F0DAF8002005F0FD
:100864009DF8002005F02CF83F2806D8002005F05C
:1008740027F8021E14D0102800D91022194C002089
:10088400210005F029F800280AD02021114A201857
:1008940093691942FCD1237801341360A042F7D143
:1008A40010BD002004F0F4FF00280FD10B4C236886
:1008B400002BF5D0002005F0D1F800232360EFE7EA
:1008C400002005F0BFF8041ECBDDC2E70122034B74
:1008D4001A60C6E7008003408B2801207429032096
:1008E4008C280120E828012070B507F0A9FC074CEA
:1008F400074D2060FFF78CFF2000296807F040FEB9
:100904000028F7D107F09CFCF3E7C04698E50020E7
:10091400A09600204A780B7812021A438B7870B59F
:100924000C00C9781B0413430906194300D1013193
:10093400154802F0BFFD154D0600286807F0DCFAE3
:100944000120312E03D93221300002F0B3FD104BC7
:100954001860104802F0CEFA002005F07FF800205D
:1009640004F0F0FF6278237812021A43A378E17846
:100974001B04134309061943064802F04BFA28687E
:1009840007F020FB70BDC046006889093C2901209E
:10099400A096002000800340064B10B5186800297B
:1009A40001D1002A02D007F00DFB10BD07F0A4FA14
:1009B400FBE7C0463C29012070B5774C200003F0CA
:1009C40031FA2378180901001A01D2B230319F2B71
:1009D40000D90731714B10091970002121700100F1
:1009E40030319F2A00D9D4E0597061780D0928006C
:1009F4000A01D2B230309F2900D9BFE0002198709B
:100A040010096170010030319F2A00D9B4E0D97017
:100A1400A1780D0928000A01D2B230309F2900D9EB
:100A24009FE0002118711009A170010030319F2A44
:100A340000D994E05971E1780D0928000A01D2B275
:100A440030309F2900D97FE0002198711009E170AE
:100A5400010030319F2A00D974E0D97121790D0940
:100A640028000A01D2B230309F2961D800211872BF
:100A740010092171010030319F2A57D859726179C8
:100A84000D0928000A01D2B230309F2944D8002130
:100A9400987210096171010030319F2A3AD8D972D5
:100AA400A1790D0928000A01D2B230309F2927D834
:100AB400002118731009A171010030319F2A1DD83B
:100AC4005973E1790D0928000A01D2B230309F2907
:100AD4000AD8002198731009E171010037319F2A67
:100AE40000D80739D97370BD0021073098731009F5
:100AF400E171010037319F2AF4D8F2E70731DFE7CB
:100B04000021073018731009A171010030319F2AA8
:100B1400D6D9F3E70731C2E70021073098721009EC
:100B24006171010030319F2AB9D9F3E70731A5E794
:100B340000210730187210092171010030319F2AF9
:100B44009CD9F3E7073188E7002107309871100931
:100B5400E170010030319F2A00D87EE7F2E70731C7
:100B640068E70021073018711009A17001003031C5
:100B74009F2A00D85EE7F2E7073148E700210730F3
:100B8400987010096170010030319F2A00D83EE747
:100B9400F2E7073128E7C046282901204429032029
:100BA400F8B5124F124D7B682A6804000E00934278
:100BB40018D001335901C91A8900C91809010D480F
:100BC40002F078FCFFF7E8FC7B682B60002C0BD06C
:100BD4002500082C00D9082531782800FFF7F0FCFF
:100BE400641B0136002CF3D1F8BDC046209B0020C5
:100BF40040E1002040597307F0B5C6461F4B204C16
:100C04001500984622685B6807000E0000B5934201
:100C14000DD001335901C91A8900C91809011948AD
:100C240002F048FCFFF7B8FC43465B6823603F23AF
:100C34001C003C403B4212D140243F0611D52E00FB
:100C44002500082C00D908252800FFF7D3FC641BD5
:100C540030700136002CF3D180BCB846F0BD3F069D
:100C6400EDD42500082C00D9082531782800FFF799
:100C7400A7FC641B0136002CF3D1EDE7209B002078
:100C840040E1002040597307F8B5DE465746454613
:100C94004E46E0B5644D654F6B683A6804008B4678
:100CA40093420CD001335901C91A8900C9180901AA
:100CB4005F4802F0FFFBFFF76FFC6B683B600123AA
:100CC4001E00E1086708A0081F4018400B402021BF
:100CD4003A18264092199A18520111407200114391
:100CE400BF003943C00001431B011943812308207D
:100CF4001943FFF765FCFFF797FC287E0330FFF7E5
:100D040079FCFF230700287E1F4098460741012FE6
:100D140025D00226BB1EB3430CD02130FFF76AFC5A
:100D2400FFF796FCFFB23800F0BCBB46B246A946BA
:100D3400A046F8BD6B7E002B42D026426BD1FFF754
:100D440059FCFFF785FC6B7E002BEBD000212020A3
:100D5400FFF736FC00210120FFF732FCE2E7A3078E
:100D640038D4FFF747FCFFF773FC5B461E6820206E
:100D74003100FFF725FC300008F072F90100012072
:100D8400FFF71EFC0127240602D52A4B9B6AAB60A1
:100D94002D7B002DC7D02800202D0DD92C0000213B
:100DA4002020203CFFF70CFC202CF8D82800213808
:100DB40040094001203D281A0021FFF701FCB2E759
:100DC400FFF718FCFFF744FC6B7E002BAAD02642E9
:100DD400A8D1BBE72020FFF70DFC81460120FFF7D7
:100DE40009FC8246484602F02DFB52464346134016
:100DF40043403B405A1E934106375B421F405B46CB
:100E04000137002B01D04A461A60287EFFF7F2FB17
:100E1400FFF71EFCB7E72120FFF7ECFB287EFFF766
:100E2400E9FBFFF715FC7DE7209B002040E1002053
:100E34004059730700400540F0B54E46DE4657461C
:100E44004546E0B5037804001A00803AD2B20E0099
:100E54008DB01F2A08D94A1C92460B701D2B0ED840
:100E6400C8499A008A58974600F0B4FD040020004F
:100E74000DB0F0BCBB46B246A946A046F0BDFF2368
:100E8400C14C3370F3E7B31C994600237370427866
:100E9400831C561E002A00D19BE0012292463E325A
:100EA4000124934612E0FFF7D3FB4A46414628004B
:100EB400FFF7A2FE002E00D160E143460134DB19A6
:100EC400E419721E002E00D187E116005A1C1D7809
:100ED40090465B465A4608272B402A4201D00733E6
:100EE400DF086BB2002BDEDAFFF79EFB4A46414671
:100EF4002800FFF781FE002E00D175E1434601343E
:100F0400B944BA44DDE7FF23447873700134FE3BEF
:100F140024041C439C4B9C466444A8E79B4B1B78CD
:100F2400012B01D100F0F9FBFF23994C73709EE76C
:100F3400964F3B78012B00D18AE300230322737080
:100F4400B370F37023799B0700D45CE180248E4B4B
:100F5400E4029C461443644489E78C4F431C099380
:100F64003B780893012B00D15EE18278C31C002AF0
:100F740001D100F04BFC0220102406E00C4207D102
:100F84000133013A002A00D131E119780842F5D140
:100F94000533F6E743787D4A7D4C1373C378817833
:100FA4001B020B431382437901791B020B435382C7
:100FB400002373705BE70024744B1C70FFF7E2FBA3
:100FC4007470744C53E743780024012B00D8BCE0C0
:100FD4007470714C4BE70123427893429B41DBB21E
:100FE4006E4C737043E74278F12A00D1B3E300D921
:100FF400E6E0042A00D1A4E33121F02A01D000F074
:10100400BBFC0123664CB170737030E7827843787F
:1010140012021A43C37801791B04134309061943C6
:1010240000D1A3E25F4B994200D9A1E2C81802F0B3
:1010340041FA431E5A1E93410022C01A534B5A7060
:1010440058600023584C737011E70322002443783E
:101054004E491A405B070132DB0F0A764B767470F7
:10106400B7E7811C4078002800D1D7E00123C41DD4
:10107400E408013424041C43434B9C466444FFF7B6
:101084008FFD00237370F2E6FF2373704378811C95
:10109400581E002B9DD001233F252A000C782240A6
:1010A400254266D00732D208013289189B180138CC
:1010B400F3D201221B041343334A9C18D7E60023BE
:1010C4003A4CB3707370D2E62379E2781B0213436F
:1010D4006279417812041A43A37980781B0613437A
:1010E40020D0334A934200D91300324A946AC50788
:1010F40000D577E2850700D53AE30425202705408B
:10110400074040B2002801DB00F025FC002F26D167
:10111400002D01D000F0F2FBC80903D0906A001B37
:101124008342F5D80023244C7370A0E68278437878
:1011340012021A4353019B1A9B009B18013BFDD1D9
:1011440000234DE7FF24747043E701220F4B1A700C
:10115400FFF7A2FA194B1C600134747039E7002DB3
:1011640000D0D1E34809DDD0906A001B9842F6D341
:10117400D8E70931093301388FD29AE7FFF768FAC3
:101184009BE6C0466893002001000100209B0020DC
:101194000200060002000100020002000200030037
:1011A400030002009FACB903020005000300010024
:1011B400C0C62D00004005400200070040E10020A9
:1011C400FE2A2FD0FF2A00D0D6E34023B370002399
:1011D400F3700233CA4C737049E6534624041C432B
:1011E400C84B9C46644442E6FFF732FA86E6099A05
:1011F4009C1A022324041C43C24B9C4664440023CF
:101204007370B37033E6A378E47824021C43BD4BB7
:1012140001349C46A4041443644428E68020BA4C58
:1012240040002CE70221ECE6F31C06930023B74DA3
:10123400C11C2B7083789946002B00D180E30023D6
:101244000022B34698462E0007930293059202208B
:101254000D784B1C42460493284200D1AAE0002A90
:1012640033D011223C8A2A40012A00D131E1884638
:10127400019307E0002C00D19EE13378013C002B60
:1012840000D09CE10E200BA9FFF7FEFC0228F1D050
:101294000022414690460200019B0590012A00D09D
:1012A40055E30B98069A040A10705470040C000E4F
:1012B4009470D070140040460434002804D06AB2FC
:1012C400002A00DA7FE105900694E80600D4AEE037
:1012D40058781A78000210439A78DB781204024393
:1012E4001B06134301934B1D04937B8AEA0715D510
:1012F4003C8A039307E0002C00D1A3E03378013C3F
:10130400002B00D09EE000212800FFF7BDFC02283E
:10131400F1D0039B0590012800D018E34246B8465B
:101324001F00039243461C8A05E0002C35D0337815
:10133400013C002B31D128000BA9FFF7A5FC0200CA
:101344000228F2D0012828D143460B995C69019BFD
:1013540021408B4200D10EE1002F03D03278013FAF
:10136400002ADFD0039A47463500030090465E46C4
:1013740010221A43D2B2022110204B469446049CF8
:1013840006E0104207D10134013B002B00D1FAE002
:1013940022781142F5D10534F6E747460399030054
:1013A400884678690B993500014001985E46814270
:1013B400DED1E0E7002A49D158781A7800021043B8
:1013C4009A78DB78120402431B06134320220B9302
:1013D40005312A425ED07B61002398460133059390
:1013E400029B013302933378002B00D0EDE1013BE3
:1013F4009C46E1444B46002B00D028E735005E466E
:10140400059A0491012A00D1BAE1D3B20893029B50
:10141400099A7370089BB370049B9C1A5246069BEE
:1014240024049B1A1C43374B9C4664441FE53C8AA6
:10143400E90762D54246002A00D1DBE01900002307
:101444000793CDE7350002005E4694E73C8A019598
:1014540003930D0005E0002CF4D03378013C002BFD
:10146400F0D10E200BA9FFF70FFC0228F3D02900BE
:10147400039B019D0590012800D068E20B9A069C0D
:10148400100A22706070100C120EE270221DA070FF
:10149400069291E73B8A88461C0007E0002C00D1A5
:1014A400CFE03378013C002B00D0C2E028000BA928
:1014B400FFF7EAFB0228F1D041460590012800D04D
:1014C40043E26DB2002D67DB0123079300239846A6
:1014D40086E70191039305E0002C57D03378013C53
:1014E400002B53D128000BA9FFF7CEFB0228F3D021
:1014F40002000199039B0590D0E601930EE0C046DB
:10150400040002000100010002002200342A03202A
:10151400002C97D03378013C002B93D128000BA9E1
:10152400FFF7B2FB0228F3D0019B0590012800D0FD
:101534000DE26DB2002D0ADAB968069A080A117034
:101544005070080C090E9070D170043206920B99F9
:10155400069A080A11705070080C090ED17019000F
:101564000023907004320692079339E7FF2369E55C
:101574000122012062E5039B474698460023049913
:10158400059007932CE7624604943BE735004446F4
:101594005E46A0460222EEE6BB68069A180A13705D
:1015A4005070180C1B0ED37001230793131D069360
:1015B40000239070984613E735005E46E9E735004E
:1015C40000245E46E5E7BA68069C100A6071100CB8
:1015D4002271A071120E2000E27142460830059279
:1015E400069072E6002900D19CE5916A091B8B42A2
:1015F400FBD897E5019307E0002C00D1FBE033789A
:10160400013C002B00D01DE700212800FFF73CFB24
:101614000228F1D0019B0590012800D097E16DB21A
:10162400002D00DAD6E0002207920132904619001C
:10163400D6E6414602000023350098465E460491F2
:1016440099E6414635000200A0465E46049192E6C2
:101654000022CB4D81782A70C27812020A4301928B
:1016640000D1CEE002799146920700D5D0E0431D27
:101674009A4600232A009B460BAB4D468046B14652
:101684001C001600029753461A785B781B0213431A
:101694005246927812041A435346DB781B061343CE
:1016A4000B9304239C46029BE2441F8A05E0002F0F
:1016B40030D03378013F002B2CD121002800FFF7D4
:1016C400E3FA0228F3D0012824D101239C46019B8C
:1016D400E344013B0193002BD5D1029F35004446DE
:1016E4004E463F8A06E0002F0AD02B78013F002B9C
:1016F40000D01FE100210E20FFF7C6FA0228F2D025
:101704005B460322190ADDB2C9B27570B170F0707C
:10171400FFF718FC44464E46F2E7C37882781B0272
:10172400134302790BA912041A43437900201B06C0
:1017340013430B93FFF7A8FA0023924C7370FFF73F
:1017440096FB06229049B01C02F0C6F906238F4C82
:101754007370FFF78CFB4023B3700233F370333B99
:101764003371002373710433894C7370FFF77FFB6B
:10177400490800D1D6E4916A091B9942FBD3D1E40C
:101784004346002B00D1A2E00BAB3C8A1F0007E0CC
:10179400002C00D1AFE02B78013C002B00D0AAE054
:1017A40039000E20FFF770FA0228F1D0012800D08A
:1017B400A1E00B9B06991A0A0B704A701A0C1B0EB7
:1017C400CB700B1D8A70069321E63500059A5E46A0
:1017D4000491D0E5B968069A080A11705070080C93
:1017E400090ED170002190700791043201318846AE
:1017F40006921900F4E50023350002005E4698467F
:10180400B9E503220020002100257EE7614CF6E4BF
:101814004A46134214D03A8A83461400984605E097
:10182400002C76D02B78013C002B72D10021484645
:10183400FFF72AFA0228F3D043465C46012869D10F
:10184400002083460BA8D846321DB34604972E00C9
:101854004F46A146040001990593013902920029DB
:1018640030D0049B1D8A0391019205E0002D1FD006
:101874003378013D002B1BD121003800FFF704FA17
:101884000228F3D00399019A012812D10B98029BE4
:10189400050A10705570050C000E9570D870012360
:1018A4009C460432E044481E002938D00100D5E7A4
:1018B400019A4346190ADDB253464C465E46C9B204
:1018C400D21A22E701233B42CBD00E27C9E7079B5C
:1018D400002B00D19BE53C8A05E0002C09D02B7835
:1018E400013C002B05D100210E20FFF7CDF9022881
:1018F400F3D008908BE5C3B2089388E5880801D03B
:10190400FFF70CFCFFF70EFC880800D02CE4FFF76F
:1019140009FC5C46002103220D00C0B2F5E64146F5
:101924005046059BCDB2090A121A4C465E46180071
:10193400C9B2EAE65B46DDB21B0A0322D9B2E4E689
:10194400002304910293089361E5059A73E6350038
:10195400059A5E460FE5002D20D14909002F01D1DB
:10196400FFF7E0FB002901D1FFF7DCFB906A001BC5
:101974008342F7D8FFF7D6FB074C7370FFF777FA6B
:10198400342A0320020006006093002008000200AD
:10199400060002000300030002000200890801D1CE
:1019A400FFF7C0FB916A091B8B42FBD8FFF7BAFB18
:1019B4003D21074B10B559600021002219736421A1
:1019C4001A805A61013219611A83FEF755FE10BD5F
:1019D400209B0020037801480B7070470100010030
:1019E400024B9C466144890001607047400000340A
:1019F4000021044B044ABFF35F8F02C39342FAD120
:101A04007047C046000100D0800100D0044A10781D
:101A1400431CDBB2172B00D9102313707047C04648
:101A2400A496002010B5064B064C82B0010000932A
:101A340018221F23200000F03FF802B010BDC0465A
:101A4400E093002044E10020EFF3108072B6034AD3
:101A54001368002BFCD0BFF35F8F70472C0100D0BC
:101A6400BFF35F8F0022024B1A6080F31088704727
:101A74002C0100D070B5EFF3108C72B60D4D2B68AD
:101A8400002BFCD0BFF35F8F0724CB08C618C05CC3
:101A940001230C40A3401C000440034207D1184317
:101AA4003070BFF35F8F2C608CF3108870BD100012
:101AB40001F0ACFA2C0100D0F8B54746CE46884672
:101AC40080B5EFF3108C72B6214D2C68002CFCD03D
:101AD400BFF35F8F9A422CD8D4080727055D0619F7
:101AE40001241740BC402C421FD0072101278946FE
:101AF40009E0D408055D06194C4639001440A1409C
:101B04000C00294211D001329342F2D2012040420A
:101B1400BFF35F8F00220E4B1A608CF310880028ED
:101B24000FDBC0BCB946B046F8BD25431000357084
:101B3400EEE7BFF35F8F00232B608CF31088012046
:101B440040424346002BECD0089801F05FFAC046AF
:101B54002C0100D0024B18688007C00F7047C046A4
:101B640000C006408023DB051868000F7047C0469C
:101B740083680B4810B5844661446244120109012C
:101B840059189B185C684A680120944201D802D015
:101B94000020C0B210BD1A680B689A42F9D8F7E762
:101BA400FFFFFF0F074810B50268EFF3108172B60C
:101BB4001368002BFCD0BFF35F8F05F09BFA002065
:101BC400002110BDD0280120F8B5574645464E46A1
:101BD400DE46E0B598460CAB1C780DAB1B780700CD
:101BE40091469A460568002C5ED1AC7B002C3BD014
:101BF400660029683619033E89194B78AB73002BAC
:101C040000D1EB7300238B704B700B702D4BE218DB
:101C1400BB6812019B184A461A6042465A600A9AE7
:101C24009A600B9ADA6000238B704B700B706B7B9D
:101C34009B46002B2BD022005946A8686B68984716
:101C44002A68002816D05B4658465B005B44961908
:101C5400033BB070D118D35C002B00D073705B468B
:101C64000C706B735C4513D0F0BCBB46B246A946FE
:101C7400A046F8BD5B465B005B44033BD3189C70F5
:101C84009119925D002A00D05A705B460B706C73F8
:101C94004A464346387D00F0DFFB051E0AD10E9B01
:101CA400002BE1D01D70DFE7660029683619033E7A
:101CB4008919ABE75346002BF1D12100386800F0B5
:101CC40021FEECE7FFFFFF0FF0B5DE4657464E4618
:101CD40045460023E0B58DB00A936A4B8200D7587D
:101CE40000239B460B9000F033FB02000B00786846
:101CF400EFF3108972B64D4601680029FCD0A9465D
:101D0400BFF35F8F39684E7B8C46002E2ED0BC68A3
:101D14005D49A246711809018A4451460868496818
:101D240004000D00A41A9D41002D5EDD02000B008D
:101D34000B9800F091FB002300229A46002308929E
:101D44000993002398467B68BFF35F8F5A461A6055
:101D540089F310884346002B12D10028C3D10DB05B
:101D6400F0BCBB46B246A946A046F0BD0023002203
:101D74009A46002308920993002300209846E2E73C
:101D84000A9B514618023043C047069007917A686F
:101D9400EFF3108572B654461368002BFCD0A246AC
:101DA400BFF35F8F0699079A002A3BDB114302D0E9
:101DB4003B69002B52D13B68D97B002905D01A68B6
:101DC400480041185218033A5670DE73FA68013E0F
:101DD400935D013393555B463B617B68BFF35F8F33
:101DE4005A461A6085F310887DE7002D01D1002C36
:101DF4009CD10021604600F0EDFC53465C681B68F2
:101E04000893099453469B6898465346DB689A4660
:101E1400FB689B19013B1B780A931B0203433B613C
:101E2400002090E73B69002BC5D0089B099C5B1AF6
:101E34009441089809991A002300A14219D899429B
:101E44001BD0002104910131039151460191414677
:101E5400380002960091FFF7B7FEBCE700F078FA6D
:101E6400069A079B12184B41994202D8E9D1904235
:101E7400E7D901225242D317E3E708999142E0D906
:101E8400F7E7C046C4E50020FFFFFF0FF8B557464B
:101E94004E464546DE46E0B5404D824689466A6870
:101EA400EFF3108872B61368002BFCD0BFF35F8F7A
:101EB4002E68B47B002C48D0670033683F19033F79
:101EC400DB195A78B273002A00D1F273344AA1188C
:101ED400AA680901521851461160494651603149B6
:101EE40091600021D160997059701970737B9B4681
:101EF400002B45D022005946B06873689847326871
:101F0400002830D05B4658465B005B44D719033B3E
:101F1400B870D118D35C002B00D07B705B460C707A
:101F240073735C452DD00026EB681B19013B1978AF
:101F34006B68BFF35F8F00221A6088F3108800205B
:101F4400002E0AD10802204307E06B68BFF35F8FBD
:101F54001C6088F3108801204042F0BCBB46B246A6
:101F6400A946A046F8BD5B465B005B44033BD3181F
:101F74009C70D119D25D002A00D05A705B460B7058
:101F8400747352464B46287D00F066FA061ECAD08A
:101F94002100286800F0B6FCC6E7C046A8960020D9
:101FA400FFFFFF0F6519002010B5124C6368002B6A
:101FB40004D00A211048FFF713FD10BD23000F4A77
:101FC4001021206800F006FB032000F0B5F903207F
:101FD40000F0B0FA03200A4900F0F8F9FFF716FD03
:101FE400084B9C46032360442375074B80006060C4
:101FF400DC60DEE7A8960020D028012031190020FB
:10200400891A002040000034C4E5002000487047CD
:10201400A8960020F0B557464E464546DE46E0B544
:1020240085B0019310AB1B780600039300239A46F6
:10203400984600927268EFF3108B72B61368002B07
:10204400FCD0BFF35F8F3568AC7B002C6BD067008E
:102054002B683F19033FDB195A78AA73002A00D171
:10206400EA73524AA118B2680901521800980199FA
:10207400106051600E9991600F99D16042469A7038
:102084005A701A706B7B9946002B00D175E02200C0
:102094004946A8686B6898472A68002860D04B4670
:1020A40048465B004B44D719033BB870D118D35C46
:1020B400002B00D07B704B460C706B734C455DD08D
:1020C400F3681B19013B18787368BFF35F8F4246AE
:1020D4001A608BF310885346002B08D1000220436A
:1020E40005B0F0BCBB46B246A946A046F0BD039B72
:1020F400002B59D00E9B00200F9998470300040031
:102104000D000B4350D0002916DA00980199020003
:102114000B00121BAB4199421CD83CD00092019396
:10212400039B9A4686E77368BFF35F8F1C608BF34B
:10213400108801204042D3E700F00AF902000B00A6
:10214400A4185D4100940195A94203D8E8D10099EF
:102154008A42E5D901235B42DC1700930194DFE74F
:102164004B465B004B44033BD3189C70D119D25DA2
:10217400002A00D05A704B460B706C73307D009A65
:10218400019B00F069F98246002899D0210030684B
:1021940000F0B8FB94E700999142BFD901235B4258
:1021A400DC1700930194BBE7002099E7FFFFFF0FC2
:1021B400F8B5CE46474680B505000C00FFF766FE2D
:1021C400031E0CDC2C4A0020536A9C4203D8926AFA
:1021D4000130AA423ED3C0BCB946B046F8BD20BFC8
:1021E400264E7168EFF3108772B60A68002AFCD095
:1021F400BFF35F8FDAB294463068427B624533D0D6
:10220400FF2201681A408946510088464946904495
:10221400414403398978002921D0F1681B0A8A18BE
:10222400013A1278DBB29A4221D07368BFF35F8F10
:1022340000221A6087F310880F4B00205A6A9442D8
:10224400C9D89B6A0130AB42C5D2A01A431E98413B
:10225400C0B2C0E7E31A5A1E9341D8B2BBE7326951
:102264009342E2D13161E0E7FF221A40D5E76146AB
:1022740000F048FBD9E7C04600400540A89600207E
:10228400F0B5D6464F464646C0B5EFF305823F2328
:10229400134018001038EFF3108C72B620490A6806
:1022A400002AFCD0BFF35F8F0122170087401D4C2A
:1022B4001600A24667631C4C2578A0462C00C44037
:1022C4002640224215D05246566A184A8400A25823
:1022D400964218D34246164BBD43E3581570BFF3DC
:1022E4005F8F00220A608CF31088002B06D0984779
:1022F40004E0BFF35F8F0E608CF31088E0BCBA4635
:10230400B146A846F0BD0B4A9B00904643441A6868
:102314001A60BFF35F8F00230B608CF31088EDE726
:10232400280100D0004005403A2A0320D428012087
:1023340030E00020D03F054010B5034B01001800E9
:10234400024AFFF797FB10BD382A0320FC930020B4
:10235400034B596A0A00986A596A8A42FAD170474B
:102364000040054070B504000D00174A536A190077
:10237400966A536A8B42FAD13000190024184D41F1
:10238400AB4216D813D0104B2A005B6A9D4203D986
:102394000D494B6A9342FCD3934207D10A4A02E0A7
:1023A400516A994202D1916AA142F9D370BDA64201
:1023B400E9D9054B5B6A1C005A1CEFD001220124A9
:1023C4006442E5175242E3E70040054070B504005B
:1023D4000D00EFF3108672B61A4A1368002BFCD076
:1023E400BFF35F8F002D1BD0200000F005FB1649C2
:1023F40081420AD0200000F007FB0121200000F0F8
:10240400E9FA0123A340114A1360114BA400E550DB
:10241400BFF35F8F00220B4B1A6086F3108870BDE8
:102424000121A1400A4BA200D5500A4B20001A7882
:102434008A4305491A7000F011FB0021200000F0C6
:10244400C9FAE5E7280100D04120002038600540A2
:1024540030E000203A2A0320F0B54F46D6464646DF
:10246400C0B507002E4C616A0D00A66A616AA942D4
:10247400FAD18B4208D805D00120E0BCBA46B14657
:10248400A846F0BDB242F7D9EFF3108A72B62548D8
:1024940001680029FCD0BFF35F8F0125BD402249AC
:1024A4001F4C8846097889462943C9B28C4641465F
:1024B40060460870391D890065630A511B49B800DC
:1024C4004350216A0020294219D0616A0800A66A93
:1024D400616A8142FAD18B4219D801D1B24216D82D
:1024E400CC450BD00E4B1F221D625D6301233A4085
:1024F40093400F4A136043464A461A700120BFF3C3
:102504005F8F0022074B1A608AF31088B5E700201A
:10251400BFF35F8F0022034B1A608AF31088ACE785
:1025240000400540280100D03A2A0320D428012085
:1025340080E200E0EFF3108C72B60A490B68002BBE
:10254400FCD0BFF35F8F01238340074A074813621F
:1025540002789A430270BFF35F8F00230B608CF301
:1025640010887047280100D0004005403A2A032013
:1025740070B505000E001400002923D0002A12D0E3
:1025840080686B689847296800280ED063001B197F
:102594007200033B9219CB18033A9E7088188A5C28
:1025A400002A11D10470300070BD73009B196200C1
:1025B400033B1219CB18033A9C7088188A5C002AD2
:1025C40005D106702000EFE75A700470EBE75A70EB
:1025D4000670F7E730B583600023CCB24373013350
:1025E400047342608373C4730D000068012C06D920
:1025F400421C0133DBB2137003329C42F9D1FF2138
:1026040029404B005B18C01800230338437030BDC9
:1026140070B505000C1E07D0630001681B19033B4D
:10262400CB185A78002A01D1200070BD50008018C0
:102634000338091800204E7848702100587028008B
:10264400FFF796FF310004002800FFF7E1FF0600C2
:10265400002C26D00028E7D021003200A8686B683F
:102664009847296800280ED073009B196200033B29
:102674001219CB18033A9C7088188A5C002A00D07F
:102684005A700670D0E763001B197200033B92195D
:10269400CB18033A9E7088188A5C002A00D05A70BE
:1026A40004703400C0E7C046F8B557464E46454668
:1026B400DE464C00E0B5641817000268033C0500D0
:1026C400105D13190E009C46002852D04300984612
:1026D4001B18033BD31859788A46002919D1002FB7
:1026E4000CD0EC7B002C50D063001B19D318033B97
:1026F4005E70EE73434619180339531800229A701A
:10270400002362465370F0BCBB46B246A946A046BD
:10271400F8BD4900514403395218517888460021C4
:10272400517089465970524601002800FFF720FF76
:1027340043468246002B07D05B0029684344033B91
:10274400CB185A78002A2CD1514642462800FFF76C
:102754000FFF0100002F1AD0A4462A68EF7B94448F
:10276400002F04D07B00DB19D318033B5E70EE739B
:1027740010E0002FC4D0E97B002910D04B005B1877
:10278400D318033B5E70EE73BAE7EE73B6E7A44664
:102794002A6894440029B3D04B009846AAE7EE7304
:1027A400AEE7500080180338091848788346484635
:1027B4004870587041462800FFF7DAFE59468046B3
:1027C4002800FFF725FF414602002800FFF7D0FE4E
:1027D4008046B9E7F8B557464E464546DE46E0B56D
:1027E400467B02687500AD19033D0F00515D531916
:1027F40004009C46002953D04B0098465B18033BC9
:10280400D3185878824600281BD1002F0CD0E57BC2
:10281400002D51D06B005B19D318033B5E70E67337
:10282400434658180338131800229A70002362464E
:10283400300053706173F0BCBB46B246A946A04653
:10284400F8BD4000504403381218507880460020E8
:1028540050708146587052462000FFF789FE434667
:102864008246002B07D05B0021684344033BCB180E
:102874005A78002A2CD1514642462000FFF778FEB0
:102884000100002F1AD0AC462268E77B9444002F45
:1028940004D07B00DB19D318033B5E70E67310E0B1
:1028A400002FC3D0C07B002810D043001B18D318BE
:1028B400033B5E70E673B9E7E673B5E7AC4622689E
:1028C40094440028B2D043009846A9E7E673ADE7E4
:1028D40050008018033809184878834648464870E1
:1028E400587041462000FFF743FE594680462000B9
:1028F400FFF78EFE414602002000FFF739FE8046B6
:10290400B9E7C04670B5050000292CD0437B8B4243
:102914002ED04C0000686418033C0419A278002AE5
:1029240021D053009B18033BC25CC6188A4202D1D3
:102934001BE0002A08D053009B18033BC3185A78A5
:102944008A42F6D162785A70002301222800A370CB
:102954006370FFF7A9FE697B02002800FFF708FEF9
:102964006873012000E0002070BD63783370EBE7EA
:1029740001221900FFF798FEF2E7C04610B50400E3
:10298400FFF744F801002000FFF72AF801235B4217
:102994006360BFF35F8F10BD10B50400FFF736F816
:1029A40001002000FFF71CF801235B426360002351
:1029B4002372BFF35F8F10BD10B504000120FFF731
:1029C40031F8034BC3189B002360BFF35F8F10BD26
:1029D4004000003401238340002904D0034A1360DB
:1029E400034A13607047034A1360FBE780E200E088
:1029F40000E100E080E100E0024B10309B688000C1
:102A0400C058704700ED00E070B50D00EFF310867C
:102A140072B60F4A1368002BFCD0BFF35F8F0D4BC7
:102A240010309B6884001B590B4A934203D09D428B
:102A340001D000F009FB074B9B681D51BFF35F8F6A
:102A4400BFF35F8F0022024B1A6086F3108870BDBB
:102A5400240100D000ED00E0CD010010F0B5DE4609
:102A640057464E464546E0B50C0083B0EFF3108A56
:102A740072B6604A1368002BFCD0BFF35F8F10223C
:102A8400914681444A465C4B96009B689D595B4B3A
:102A940098469D4205D0A54216D0594FEB1B2F2BCB
:102AA40014D9554B9B689D51BFF35F8FBFF35F8F64
:102AB4000022504B1A608AF3108803B0F0BCBB4666
:102AC400B246A946A046F0BD1D00EAE701238340B3
:102AD4009B465A464B4B1B681A4000925A464A4B37
:102AE4001A60BFF35F8F06F0FBFA031E01901DD13D
:102AF4002A0001339A439068844208D171E04B0064
:102B04005B189B00FB189868A04245D01A00062168
:102B140051560029F3DA84426AD0009B002B34D04A
:102B24005A463A4B1A60374B1A60BAE7814530D19E
:102B34002A0001239A4390688442E8D10621515621
:102B44001300002940DB4A00501880003C188046DE
:102B5400A0689860E079D871062020569871002802
:102B64002FDBA488F81A6405241544440019E024D2
:102B74000005400D2402204398805318244A9B00EA
:102B84001078FB1898711170C7E75A461E4B1A60EB
:102B940087E700F059FACBE7062159560029D2DA23
:102BA4000199002910D1FF3191711A499180184976
:102BB4000A789A71184ADB1B5B415A43120D0A705A
:102BC400ABE7BD200002D7E7144A1549D21A083AE8
:102BD4005002400D01439980124952080A43DA8099
:102BE4009BE70621515613000029ACDA4546DEE77F
:102BF4001300D5E7240100D000ED00E0CD01001062
:102C0400D096002000E100E080E100E080E200E0F6
:102C1400392A032000BDFFFFAAAA00000A9700205A
:102C240000F0FFFF00F8FFFF032310B50400074A7C
:102C340018409446C0009C43FC338340644422689B
:102C440081409A4313000B43236010BD00E400E06D
:102C5400F8B501250400054306F042FAEFF3108CA1
:102C640072B6214A1368002BFCD0BFF35F8F1F4E4E
:102C74002100B7681E4A1F4B891A49414B431B0D5B
:102C840059B28300F858A8421CD00623D3568B426D
:102C94001CD01223D3568B4222D01E23D3568B42F0
:102CA40020D02A23D35603208B4210D0124B1A78FB
:102CB4001970A271BFF35F8F00220B4B1A608CF363
:102CC4001088F8BDB2680D48D050EFE700204300EB
:102CD4001B189B00D218FF239371094B9380E5E7DF
:102CE4000120F4E70220F2E7240100D000ED00E027
:102CF400D0960020AAAA0000392A0320CD01001092
:102D040000BDFFFF054B064A1360064A136053607B
:102D14009360D360136153619361704780808080B6
:102D240000E400E004E400E0094A10B594464024BD
:102D3400830063441A68C0006240803414408022D7
:102D4400520113431C60034B9C466044416010BD18
:102D540004C0014000400140034BC0009C46604455
:102D640043681F201840704700400140074B800013
:102D74009C4660440368C90092000A435A400C23ED
:102D84001A4080235B0103431A60704704C001406A
:102D9400074BC0009C466044036809045940C023A3
:102DA4009B02194080235B01034319607047C046AE
:102DB40004400140074BC0009C466044036809037B
:102DC4005940C0239B01194080235B0103431960D0
:102DD4007047C046044001400123D02283401206BC
:102DE40093629361094A40219446830063441A68BC
:102DF400C0004A40803111408022520113431960BF
:102E0400034B9C46052360444360704704C0014063
:102E140000400140F8B5040006200D0000F074FAEB
:102E2400002844D02A4B2B49E21853425A418023AC
:102E3400DB039C469205284B62441A60274B1A60B8
:102E440010008B689843FBD1214B254AE318594263
:102E54004B4180215B0049000620995200F054FA4E
:102E64002900C00000F026FBC30921D1402701211D
:102E7400260080256162A36200232C36AD01354310
:102E84002B60062000F040FA3900800000F012FBAD
:102E94006022E36A53400E321A4080235B013343BD
:102EA4001A60104B236310232B600D3BA364F8BD01
:102EB4000D4A934203D900230C4F0D49D8E77F22D2
:102EC4000240013252089F011900BF181300CFE7D6
:102ED4000080FCBF00C0004000E0004000F0004063
:102EE4003029012001030000FEFF0000C0FF3F0065
:102EF400FFFF0000064BC3185A1E934180221204A0
:102F040094465B429B0D034A9B05634413607047E0
:102F14000080FCBF00E000402C4B2D4A70B51A60C5
:102F24002C4A2D4B2D491A6014008B689C43FBD10D
:102F34002B4D2C4EB54208D2013E761BB60808CD67
:102F4400984723000134B342F9D100F083F8264AAC
:102F5400214B1A60214A9368DB43DB01DD09002B16
:102F6400F9D14022214B224C224E9A675A671A67A4
:102F7400DA66B44208D223682000002B20D00C3437
:102F8400FFF70AFDB442F6D31B4C1C4EC022B168B5
:102F9400200000F0A1FDB460FEF72AFDFFF7B2FEA9
:102FA400FFF702F8164C174EB44208D2013E361B06
:102FB400B60808CC98472B0001359E42F9D170BD64
:102FC4000834FFF7DBFCB442D5D3DDE700E0004072
:102FD400BFCDFBFEFE7F3C0000F0004000C000407F
:102FE40098970020A8970020FFFFFF0100F0014000
:102FF40088970020989700200000002000ED00E052
:10300400A8970020B497002000BEFDE70FB400B5D8
:10301400084883B000F014FE049B002B07D005A9D8
:103024001800019100F0EEF9034800F009FE00BE1B
:10303400FDE7C046209400204091002010B50148CF
:10304400FFF7E4FF3094002010B50148FFF7DEFFDE
:103054004094002010B50C2082B000F0AFF9FEF7C8
:1030640079FD002810D0864B86488649864A186028
:1030740059609860D960186159619861D961186282
:1030840059625A6202B010BD804CA06700F09EF9EC
:1030940001227F4B1A60636C012BFCD103227D4B10
:1030A4001A607A4A936B012BFCD1013301217A4ACD
:1030B4007A480093043300F02DF90523784A0093ED
:1030C4000121784800F026F9774B5A68FF2A02D884
:1030D400802252005A6080226E4B694C12011A60A1
:1030E4002169002905D0606900F0E4F90130013854
:1030F400FDD1E0226C4B6D4819680A40026002223F
:103104001968514001320A40042102609A68114250
:10311400FCD08021664A09011160802252005A6065
:10312400644B2361644B5968FF2900D85A60032219
:103134000121574B1A60604A93681942FCD0E0237E
:10314400106803405D480360126803234A4002216B
:103154001340594A036093681942FCD08021584BAC
:10316400090119608021574B490051606361564B36
:103174005A68FF2A00D859608022544B12011A6001
:10318400E169002905D0606900F094F90130013843
:10319400FDD1E0234C4A11680B404D490B6080215E
:1031A4004C4B090119608021364B49005160E361A1
:1031B400494B5A68FF2A00D859608022474B1201B4
:1031C4001A60216A002905D0606900F073F90130A2
:1031D4000138FDD1E023404A11680B4040490B609F
:1031E4008021404B0901196080235B0053608022D9
:1031F400244BD20223623C4B5968914200D25A605C
:1032040080223A4B12011A60616A002905D0606974
:1032140000F050F901300138FDD1E023324A116841
:103224000B4033490B608021324B09011960802324
:10323400DB025360144B63622F4B5A68FF2A02D897
:10324400802252005A6080222C4B12011A60A1691C
:10325400002905D0606900F02DF901300138FDD155
:10326400E023254A11680B4025490B608021254B3A
:103274000901196080235B005360124BA36101E7CD
:10328400B8970020006CDC021BB7000000800040EF
:103294003CB0004030B00040002F6859008002402C
:1032A400008C864700C002403080004030900040CF
:1032B40030A00040001BB7003C8000403C90004020
:1032C4003CA00040405973075480004054B0004073
:1032D4005490004054A000406080004060B0004022
:1032E4006090004060A000406C8000406CB00040E2
:1032F4006C9000406CA000404880004048B0004002
:103304004890004048A00040014B8000C0587047DE
:10331400B8970020F8B504000C2017001D000E001B
:1033240000F0C8F843011B1A9901C91AC900091809
:103334008901380000F0BEF8069B29041B031943D9
:103344002368002B20DB194B194DE3185A425341D3
:103354008022520194461B03164A63441360164AA2
:1033640013601F00AA689743FBD1C023221D9B0151
:10337400134321222660A0601A602268002AFCDA26
:103384000822E1601A60F8BD3F2322681340B3426B
:10339400D9D1A3681B051B0D8342D4D1EE22E36867
:1033A400D20213408B42CED1EDE7C0460040FDBFB0
:1033B40000C0004000E0004000F000408023024ACA
:1033C4009B000343D362704700800540AA23064A4A
:1033D4001B0113602F230549D360054B1960536803
:1033E400002BFCDA7047C0460040024000B0FA00EF
:1033F4000060024010B5002800D110BD00F0D0FBE1
:10340400FBE7C04610B5094A0300146884B0002CD9
:1034140008D0012200910648524203A9A047012086
:1034240004B010BD00F00CFC0020F9E79CE500207E
:10343400B531002001480421014B18472097002092
:1034440031320020014B1B681847000020970020F0
:10345400142310B50100188804331B88984710BD45
:10346400162310B50100188802331B88984710BD35
:10347400F8B54746CE4680B50F1E19D01423994699
:10348400043304000025012698464B461888434619
:1034940021681B88984701C4431E98410135404266
:1034A4000640AF42F1D13000C0BCB946B046F8BDC9
:1034B4000126F8E7114A936F9B0813D210665166F0
:1034C400002905D0FFE7FFE7FFE7516F106F704752
:1034D40004B5002801D00020C04305F0BFFD002141
:1034E40004BDC046F0B5146E556E576F166FFFF7E6
:1034F400E5FF1466556657671667F0BD000000D0F7
:1035040094464E4A926F9208624601D230E0C04619
:10351400F0B54A4EB56F6D08FCD3346E756E776F97
:10352400366F00F025F89446444A1466556657678A
:1035340016676246F0BDC0469446404A926F9208B0
:10354400624601D258E0C046F0B53C4EB56F6D08F6
:10355400FCD3346E756E776F366F00F04DF8944679
:10356400364A14665566576716676246F0BDC0460C
:10357400002B24DB11D000293EDA00B5C9434042B8
:1035840000D1013100F038F8C943404200D1013183
:10359400DB43524200D1013300BD002AEBD10028A5
:1035A40001D1002905D00020C90FC90701D1C043AA
:1035B400410800B505F052FD0022002300BD00B50E
:1035C40000290ADBDB43524200D1013300F014F836
:1035D400C943404200D1013100BDC943404200D13A
:1035E4000131DB43524200D1013300F005F8DB43E3
:1035F400524200D1013300BD002923D1002B18D140
:10360400002A0CD0BC460D4F38667A660021002390
:10361400FFE7FFE7FFE77A6F386F674670470028D8
:1036240001D00748010000B505F018FD0022002371
:1036340000BD02000B00002000217047000000D0F4
:10364400FFFFFFFF002B00D0BFE0130C28D1002A9E
:10365400E7D080B4114F39667A66FFE7FFE730B4EC
:10366400040C7B6F396F1B0423433B667A66FFE7C8
:10367400FFE7FFE7C04684B27B6F3D6F1B04234323
:103684003B667A66FFE7FFE7C04600232C042D0C57
:103694007A6F386F00196941B0BC7047000000D0E0
:1036A400F0B594460025140E01D112020835140F0A
:1036B40001D112010435940F01D192000235D40FC7
:1036C40001D152000135D40B0134254F7C66254CC1
:1036D4003C660E0C93B2FFE7FFE7FFE73C6F6643DF
:1036E400360C7703BE467343DF0B5B04C01AB94143
:1036F400130C7343DB18C91ACE086643360CB64460
:1037040093B273431F0F1B01C01AB941130C7343C7
:103714001F0B1B05C01AB941860D8F023E43664339
:10372400360C092D24DB520A7243801A7703460AA9
:103734006643360C16235B1BDE40DF40BF1964462C
:103744006643821B7046043506330100D940A84005
:10375400C01900D30131A24206D20023F0BD0000FB
:10376400000000D0FFFFFFFF121B0130F3D3F1E78D
:1037740009277F1BFE406446A2B27243801A00D21E
:103784000139220C7243130C1204821A99410B0062
:103794007046043513370100F940A840801900D35E
:1037A4000131002B02D1A2420AD2F0BD013000D374
:1037B4000131121BFAD2013BF8D1A24200D2F0BD72
:1037C400013000D30131121BF7E7F0B51C0C00D017
:1037D40080E00CB400251C0A04D11B02160E3343EE
:1037E400120208351C0B04D11B01160F33431201BE
:1037F40004359C0B04D19B00960F33439200023591
:10380400DC0B02D192185B4101351C00971864410E
:103814000134464F7C66464C3C660E0CFFE7FFE7DE
:10382400FFE7C0463C6F6643360C7703BE4697B24B
:103834007743C01B00D20139C01B00D201399FB2AB
:103844007743C91BC91B170C77437E04FF0B801BEE
:10385400B941CE086643360C0C2D33DBB644120B4B
:103864001F053A431B0B97B27743C01B00D20139A3
:103874009FB27743C91B170C77433E043F0C801B50
:10388400B941860D8F023E43664329277F1BFE40C4
:103894000C3D7746AF40BF1930BCA2B2ABB2724305
:1038A4007343801A9941220C7243130C1204801A38
:1038B400994102000B000137001BA941F9D2781E7F
:1038C4000021F0BD0C277F1BFE4077467F0BAF40E5
:1038D400FF19E0E700245D1C07D0144F7D663966AC
:1038E400FFE7FFE7FFE7FFE73C6F95B29EB2654352
:1038F4006643401BB141150C1E0C654366433604F8
:103904002F0C3E432D04401BB141994204D20200C6
:103914000B0020000021F0BD01D19042F7D3801AA2
:10392400994101349942F2D3F6E70000000000D037
:10393400FFFFFFFF132370B51D78012D15D010DD97
:103944001D48FFF78DFD1D4C01008022200000F072
:10395400C3F8022D2DD01A48FFF77AFD194B1860D1
:1039640070BD194B154CA364F5E7174B134C23603A
:103974006360A360E36023616361A361E361236225
:103984006362A362E36223636363A363E363236405
:103994006364A364E36423656365A365E3652366E5
:1039A4006366A366E36623676367A367E367A36449
:1039B400D1E7054BA364CEE753440000E098002010
:1039C4004C330000CC2801208D37002007B5604619
:1039D40001880A0A0230DF2AFAD1C9B2820804D364
:1039E400028840880004104300E00068014A5050F7
:1039F400039007BDE098002051434343C9188C4607
:103A0400110C83B24B4310B4040C614392B280B2E4
:103A1400504362431C041B0C001910BC594113048D
:103A2400120CC0185141614470470000132310B5B3
:103A340012481C78FFF714FD0100012C0AD003DDA5
:103A440080220F4800F048F80E48FFF701FD0E4BA6
:103A5400186010BD0A4C5422200000F03DF80B4BB6
:103A64006365A365E36523666366A366E36623670C
:103A74006367A367E3672362E361E5E753460000F6
:103A8400E09900204C330000CC280120513800205C
:103A940007B5604601880A0A0230DF2AFAD1C9B2A2
:103AA400820804D3028840880004104300E00068C0
:103AB400014A5050039007BDE099002001480421B9
:103AC400014B18473097002031320020014B1B680E
:103AD4001847000030970020014B5B68184700002E
:103AE40030970020F0B546464F46D646C0B5437CD5
:103AF40080460E001700002B4BD0002A32DD274BE6
:103B040001259A464B1E00240020994607E0335DA8
:103B14000A2B2CD02B0001340135BB4213DA002CC4
:103B2400F5D133780A2BF5D143461B7C002BF1D118
:103B34004346504602211B68984728002B00013455
:103B44000135BB42EBDB874204DD4346391A1B686F
:103B540030189847F619013E33780D3B5A425341C9
:103B640042461374E0BCBA46B146A846F0BD4B4683
:103B74001B5D0D2BCED0A042DADA4346211A1B6816
:103B8400301898474346504602211B68984728003E
:103B9400D4E70368110030009847E3E7B0940020AD
:103BA400F0B5CE46474680B583B06B468046DE1CF2
:103BB400307003F055FA1F4B040001A91800994610
:103BC40005F0B4FA071E20D01B4B1C68002C28D02B
:103BD4001A4D02E0E468002C0FD02368002BF9D0C2
:103BE4002B68002B01D0A342F4D120000122310024
:103BF400FFF778FFE468002CEFD1002F11D1404685
:103C040003B0C0BCB946B046F0BD019B9C420CD089
:103C1400484605F06DFA084B1C68002C01D00127BA
:103C2400D6E7484605F0E6FAE9E7034B1C68002CA2
:103C3400CED1E4E7909700208CE1002090E10020B1
:103C4400F0B5DE4645464E465746E0B583B006001D
:103C540005F016FA050003F003FA304B040001A93D
:103C640018009B4605F062FA804600283DD02C4B94
:103C74001C689A46002C46D00A232A4F994602E033
:103C8400E468002C17D02368002BF9D03B68002B84
:103C940001D0A342F4D120002A003100FFF722FF13
:103CA4006B464A4620001A7101A90122FFF71AFF48
:103CB400E468002CE7D14346002B24D153461C680A
:103CC400002C06D06368002B0BD09847E468002CC6
:103CD400F8D1280003B0F0BCBB46B246A946A046C2
:103CE400F0BDE468002CEDD1F3E7019B9C420ED0BB
:103CF400584605F0FDF90A4B1C689A46002C02D080
:103D040001239846B8E7584605F074FAD6E7044B01
:103D14001C689A46002CAFD1DBE7C0469097002080
:103D24008CE1002090E100200A4A1368002B05D1A1
:103D34000CE01A00DB680C32002B07D09842F8D153
:103D4400002902D1C3681360C16070470029FCD008
:103D54001060FAE78CE10020F0B5002915DD0E4B68
:103D64000D271A680D4B0E4CD3185D426B41451854
:103D740020215B001E5F0478A64207D09369194294
:103D8400FCD101301460A842F5D1F0BD9369194209
:103D9400FCD11760F2E7C046382901200080FCBF3F
:103DA4003029012030B50500002912DD002010243F
:103DB400094B013D1A6893691C4208D1013093698B
:103DC4001C42FCD113682B548142F4D130BD00282D
:103DD400FCD103204042F9E73829012070B51C00CA
:103DE4000A4B15001860FFF715F8002D03DB0221BC
:103DF4002800FEF799FF002C03DB02212000FEF7C8
:103E040093FF01210248FFF78FFF70BD382901207D
:103E14004097002010B5024800F00CF810BDC046D1
:103E24008428012010B508220149FFF755FE10BD72
:103E34008428012030B5002589B00400092200211E
:103E440001A80095FFF742FE0922002105A8049568
:103E5400FFF73CFE4B236A466846137004A90D2203
:103E640005F012FA1521082220006944FFF734FEF8
:103E740009B030BDF0B5982357464546DE464E4658
:103E8400694AE0B5D75880253C006D0285B02C40C6
:103E9400883B2F420ED001222321644B00205A5428
:103EA4006349DA7001F0AAFA80222C00614B920275
:103EB4001A65614BFA0615D4FB0449D48023DB014F
:103EC4001F4200D083E080231B021F4200D08CE0FD
:103ED400BC4200D0A3E005B0F0BCBB46B246A94644
:103EE400A046F0BD504A926D9046002A2DD0514A0A
:103EF40000249346012291464C4A012692464246AA
:103F04005146B8469A461700039104E001347600FE
:103F1400E4B2202C17D03E42F8D05B469E654B4657
:103F24006508A3436D00ED18039B6D019C46654431
:103F3400280000F013FB002862D10134B743E4B237
:103F44007600002FE5D1474653461C00FB04B5D547
:103F54000023374A344D00212B609360D3601361F2
:103F640053619361D361136253629362D3621363A7
:103F740053639363D363136453649364D364136587
:103F840053659365D365136653669366D366136767
:103F940053679367D367F02228489200FFF796FD92
:103FA400274B284A00211A600020012201F0FAF967
:103FB4008022204B12031A65EB6CDB032CD4802384
:103FC4005B011C438023DB011F4200D17BE70122FC
:103FD400042100201C4301F053F91022154B1A65EB
:103FE40080231B021F4200D172E701220521002019
:103FF4001C4301F045F980220E4B12011A6567E754
:104004004B46AA8AA97800200093002301F01EFAE7
:10401400280000F0DFF990E702F066FDCFE7210009
:1040240009487940FEF7F2FF0000115098E10020A2
:10403400000010500030115010000100D8E10020A1
:10404400A4E5002080011050B494002010B5012193
:104054000520FEF7BFFC10BD10B500220021024868
:1040640000F0E0F910BDC046B8E100208022024B08
:104074005202DA647047C04600201150F0B5C646BB
:1040840000B5060000F080F90C232E4D0520AB6727
:104094002D49FEF7B9FC402398462C4C40220021C0
:1040A4002000FFF713FD43460127A38321210023AA
:1040B400274A6770A260136063545F31618441468C
:1040C400A18702396354234A23496360E260A162F1
:1040D4000B60E262214A636220009360D360136143
:1040E40053619361D361136253629362D362136326
:1040F40053639363D363136453649364D364136506
:1041040053659365D365136653669366D3661367E5
:1041140053679367D367F022002192004030FFF782
:10412400D5FC0F4B0F4A30001A6080239B052F6487
:10413400EB6490230C4AEA50FFF798FF80BCB84622
:10414400F0BDC04600001150353C002098E100202D
:1041540084001050000110508000105000001050D6
:10416400A4E500208001105010D001000B785B06FC
:1041740002D14B78052B00D070478A78014B1A6026
:10418400FAE7C04600001150F0B5CE464746072373
:1041940080B548798E780A790340C8787F218007F2
:1041A40031401B02F40913434F00820F9446914699
:1041B4002A4D3A195201AA18967001266640567083
:1041C400604600269383D6709077CA00012C29D0CC
:1041D40023488446880162448446AC446046826035
:1041E4001660002929D01F4AC90090464144416005
:1041F4003F223F3393434A46022A00D15B001A49C7
:104204003F190A687F01D3180B60184BED1953400E
:10421400EA604A469006184380236A681B060343F3
:10422400136010E012488446880162448446AC441A
:1042340060468262166000290AD1002364012C19A9
:1042440063600C4BE3600120C0BCB946B046F0BDCE
:10425400064AC900904641444162C9E798E10020FA
:104264008400105004001050A4E5002000001050F9
:1042740080001050000110500022154B10B59A60B8
:10428400DA601A615A619A61DA611A625A629A6250
:10429400DA621A635A639A63DA631A645A649A6430
:1042A400DA641A655A659A65DA651A665A669A6610
:1042B400DA661A675A679A67DA67F0329200002161
:1042C4000448FFF703FC044B044A1A6010BDC046BF
:1042D40000001050D8E10020A4E500208001105017
:1042E40010B57F200C0020404000E40911000019A3
:1042F4001A00034B4001C01800F094F8012010BDCF
:1043040098E100207F23180010B508400B420BD021
:10431400C90980224000074B401840010021C01801
:10432400120100F05DF810BD0223034AC9095B1AAB
:104334009366EEE798E10020002011507F221300DD
:1043440010B50B400A4200D110BDC9095B005B18CF
:1043540004485B01C018002300220349C37000F025
:104364003FF8F1E798E10020FFF7FFFF7F21C20942
:10437400034B9200014010B5D2580248FEF746FEA6
:1043840054970020C894002080220D4B520410B58D
:104394001A600C4B0C491A6010008B689843FBD1CF
:1043A4000A4C9C2200212000FFF790FB8022002170
:1043B40052010748FFF78AFB0923636710BDC04613
:1043C40000E0004000F0004000C000400000115038
:1043D400000010500023037443828382836170477A
:1043E40010B58368002901D01C682140002A11D02F
:1043F4008024E400114322420CD01A6822420BD1DB
:10440400074A0A401A60FFE7FFE7FFE7FFE7FFE715
:10441400FFE78368196010BD8078FFF7A7FFC046E7
:10442400FFFBFFFFF0B5C646002300B583820133CE
:104434000374436804001F68838B81611E1C9342CC
:1044440000D9161C8020B6B2921B93B2E278C00049
:10445400304315008446681E854160466D0305435C
:1044640001204240E27062786382002A52D0002B1D
:104474002ED0802252011543344A126C920745D53E
:10448400A28B101C9A4200D9181C82B28020C00052
:1044940010439B1A9046E27884461600701E8641AB
:1044A40060467603064301204240E27062789BB284
:1044B4006382002A3AD0002B02D18023DB011E4301
:1044C400A023234A36043A40DB053543134309E06D
:1044D400A023DB011D431D4B1B6C80231D4A9B0540
:1044E4003A40134362681360A26813685B052AD4D8
:1044F400194B2B401360FFE7FFE7FFE7FFE7FFE7F8
:10450400FFE7A3681D6080BCB846F0BDA278D2095D
:10451400B6D1E2E73200E068FFF7DEFA8023A16952
:104524001B0289191D43A161638AA0E7E068424622
:104534004030FFF7D1FAA3694344A36180231B02EF
:104544001E43638AB7E7A078FFF710FF00001150FD
:10455400FFFFFFDFFFFFFFAFFFFBFFFFF0B5C64626
:1045640000B5067C0400002E00D1CEE083681A68F2
:104574001D684378AD05AD0D002B00D070E0838A33
:10458400EB189BB28382A18B8D4207D200236382F6
:1045940063681B68300080BCB846F0BD626812686E
:1045A400520010D58D420ED1A26815686278AD0113
:1045B400AD0D002A00D08CE0EB18A3828D4202D20C
:1045C40000236382E6E7638A002BE3D062681E1C43
:1045D40017688B4200D90E1CE17880220D00681EFA
:1045E4008541B6B2D20032436D03154301229B1BB1
:1045F400514062789BB26382E170002A5AD0002B4A
:104604003BD0802252011543454A126C920702D4D2
:10461400A278D20936D0A28B111C9A4257D88AB2FA
:104624008021C90011439B1A9046E2789BB2160080
:10463400701E864176030E4301214A40E27062787F
:104644006382002A53D0002B02D18023DB011E4356
:10465400A023344A36043A40DB053543134316E0BD
:104664002A008069E168FFF737FAA38AA269EB1888
:104674009BB25219A382A26185E7A023DB011D43EB
:10468400274B1B6C8023284A9B053A4013436268DE
:104694001360A26813685B053ED4244B2B4013605F
:1046A400FFE7FFE7FFE7FFE7FFE7FFE7A368002671
:1046B4001D606FE73200E068A169FFF70DFAA36996
:1046C4009B19A36180231B021D43638A97E7191C6E
:1046D400A5E7E1682A004031A069FFF7FDF9A38A44
:1046E400A18BEB18A382A3695B19A36166E7E06859
:1046F4004246A1694030FFF7EFF9A3694344A3613F
:1047040080231B021E43638A9DE77F238178084A26
:1047140008481940FEF77AFCA078FFF727FEC04648
:1047240000001150FFFFFFDFFFFFFFAFFFFBFFFFA4
:1047340054970020E8940020024B5878431E984177
:10474400C0B27047409E0020024B18784007C00F4B
:104754007047C046409E0020014B18787047C04601
:10476400362A0320F8B54746CE4680B5364F0500B5
:104774003B78002B04D00120C0BCB946B046F8BD3C
:10478400532200213148FFF7A1F9314C2000FEF7F4
:10479400F5F8304B1C60304C20001C3CFEF70CF943
:1047A400200002F09DF82D4B2D4E1C602D4B984699
:1047B400002B2FD0300000E000BF42462A4B0024DB
:1047C40018603378002A2AD0284A9046264A91460F
:1047D400A34218D8E31ADBB2022B32D85A00D318FA
:1047E400DB0043441B68984733780134E4B29A1CD5
:1047F400A242EDDA2800FFF741FC2800FFF726FC6F
:1048040001233B70B7E74B4662001B681219D200C4
:104814009B18E7E7424600243378002AD4D1134B8F
:104824000024984601E0032C0BD043461B689847AC
:1048340018239C46337801340233E0449C42F2DD71
:10484400D8E700231B68FFDE362A0320409E0020A1
:10485400F89D0020949E002078970020989E0020C8
:10486400352A032000000000BC9B0020A8950020EE
:10487400F0B5DE4657464E464546E0B593B001F0E6
:10488400E7FD002800D17AE1D24BD34F9B465D4629
:10489400D24B0FAC0493D24B01970293D14B0393A9
:1048A400019B1E68F269EFF3108172B61368002B46
:1048B400FCD0BFF35F8F31623000210001F082FE33
:1048C400F269336ABFF35F8F0021116083F31088AC
:1048D400002800D153E16378082BE1D89B00EB5802
:1048E4009F466368002BDBD0A0689847D8E77F22F7
:1048F4002179BA4B0A405600C8099B191B181800A5
:1049040001273030C678BE43C670C6780337BE432D
:10491400C670002A00D139E1B34ADB7C002A06D0F4
:10492400B24A1278934200D220E19B1ADBB2022BE6
:1049340000D924E15E00F618A94BF600F618A36826
:10494400627920783669B047AAE7A44B01229A46D7
:104954001B78012113435246137033235046D25C13
:1049640056468A43C254C25C04208243F254013343
:10497400F25C8A43F254F25C8243F25423780020BE
:104984009B4600F0F7FE602223791A40602A0DD07E
:10499400402A00D162E1DB06DB0E012B00D1A9E144
:1049A400022B00D176E1002B00D166E120780021B2
:1049B400FFF7A8FC80212078FFF7A4FC70E7049B94
:1049C4001B78DB0700D46BE7894B002B00D167E72A
:1049D40000E000BF64E7814A1378DB0700D45FE797
:1049E400844B002B00D15BE710780007C00F00E078
:1049F40000BF55E77D4E7C4A00213378002A00D160
:104A0400CAE0774A0F009146764A9246BB4217D8CD
:104A1400F91AC9B2022901D900F01CFC4A00521843
:104A2400D2004A445269002A13D020789047337840
:104A34000137FFB29A1CBA4200DA31E7BB42E7D928
:104A4400524679001268C919C90052185269002ADD
:104A5400EBD10137FFB29A1CBA42D7DA20E72378A8
:104A6400624E614A994600213378002A00D1DEE083
:104A7400AA464F460D009D426AD3EB1ADBB2022BC5
:104A840000D973E35A00D318029ADB0094466344B6
:104A94005B683800984733780135EDB29A1CAA4216
:104AA400E9DA55464D4E532200213000FFF70EF847
:104AB4001022FF21F01CFFF709F830002022FF210B
:104AC4001330FFF703F800F04BFE4B4B002B00D1E3
:104AD400E6E600E000BFE3E62378444E424A994606
:104AE40000213378002A00D188E03D4AA846924646
:104AF4003C4A350093460F004E469F422FD3FB1A83
:104B0400DBB2022B00D931E35A00D318DB00534443
:104B14005B68300098472B780137FFB29A1CBA4281
:104B2400EBDA45462D4E532200213000FEF7CEFF2E
:104B34001022FF21F01CFEF7C9FF30002022FF21C4
:104B44001330FEF7C3FF00F00BFE2379B370A7E622
:104B5400039B6A001B685219D2009B1898E75B46B6
:104B64007A001B68D219D2009B18D1E71D4A58005D
:104B74001668C318DB00F618002E00D0DFE613B069
:104B8400F0BCBB46B246A946A046F0BDA368627914
:104B9400207800F003FE83E6114AA84691460022DD
:104BA400350017004E460AE0207890472B780137ED
:104BB4009A1C183697420ADC032F00D14AE3726923
:104BC400002AF1D101379A1C1836BA42F4DA454664
:104BD40066E6C0461C950020989E0020409E00205A
:104BE400A8950020BC9B002000000000352A03206B
:104BF400000000000000000000000000D04BB046A0
:104C04009A4600231F002B0056464D46994602E063
:104C1400032F00D1AAE273682800984743461B7803
:104C2400013702331836BB42F2DA4D467AE7C44BF9
:104C3400B0461E002B000F004D46994602E0032F9C
:104C440000D193E273682800984743461B780137E4
:104C540002331836BB42F2DA4D4623E7B94800283E
:104C640000D1A3E600F086FD0021584610AAFBF708
:104C740009FC002800D013E698E6202A73D0002A05
:104C840000D093E66379092B00D98FE6AE4A9B00E6
:104C9400D3589F467023217A0B4200D086E65046B3
:104CA4000F330B405B00CE09C0188019C07C8446CA
:104CB400A648002808D0A6480078844500D291E090
:104CC4006746381AC0B28446604602286CD89C4FA6
:104CD4004000B8466044C0008044002A68D043467F
:104CE400D86800F047FD434600215846DB6810AA07
:104CF4009847BEE7237A0F2B00D957E6934A5344CB
:104D0400DB78002A05D0924A127893427BD39B1A0F
:104D1400DBB2022B00D949E65E00F618884BF60098
:104D2400F618F06800F026FD00215846F36810AA32
:104D34009847002800D0B3E56022160023791E406E
:104D44001A4200D032E663790A3B012B00D92DE6E2
:104D540000F010FD63790A2B00D11AE1584610A91E
:104D640000F092FC9CE5237A0F2B00D91EE6774ACB
:104D74005344DB78002A06D0754A1278934200D255
:104D8400D4E09B1ADBB2022B00D90FE65E00F618C2
:104D94006B4BF600F618F06800F0ECFC0021584666
:104DA400F36810AA984764E79046002A00D0FDE50E
:104DB400022762799146BA43012A00D193E04A4618
:104DC400002A00D0F2E553449B193033DB780EAA55
:104DD4009B07DB0F023213805846022310A900F010
:104DE40069FC5DE567467F00B846C4446746FF003A
:104DF400BC465848006860448046002AD8D0002841
:104E040000D06CE7D2E5534A59001668CB18DB0092
:104E1400F618002E85D1C9E5A279089273789A42D2
:104E240007D07378002B00D04DE1089B002B00D0F5
:104E3400B8E05346089A584610A95A7000F024FC6A
:104E44002EE573780EAA023213705846012310A976
:104E540000F030FC24E5E3881A0AD8B20F2A00D9FE
:104E6400A4E53D499300CB589F4610A800F088FC68
:104E74005846A179FFF7F0F80222337813433370D0
:104E84000EE5E388012B00D090E508223378134324
:104E94005246137062E7E388012B00D086E50822AE
:104EA40033789343F4E7022031780EAB9A1C8B06D7
:104EB4008908DB0F01400B438DE7022A00D1B4E1DE
:104EC400264B002B00D171E500E000BF0200002A50
:104ED40000D16BE5D37891781B020B43584610A997
:104EE40000F0E8FBC5E6E288002A08D14A465344AC
:104EF4009E193036F378012A3ED09B0730D54346BD
:104F0400002B00D1CCE4D86800F034FC434610AA4E
:104F1400DB68002158469847002000F02BFC34231E
:104F24005246D35CDB0700D5BAE417E7094A5900B7
:104F34001668CB18DB00F618002E00D02BE735E5F9
:104F4400A8950020450200204095002000000000A4
:104F5400352A0320BC9B0020689500200000000037
:104F64005846FFF7CFF90222F37813430122F37076
:104F7400F3781343F370C2E79B07C0D55846FFF795
:104F8400DDF94A46F378BB43F370F3789343F37047
:104F9400B5E70EAB9A1C5846012310A9167000F011
:104FA40089FB7DE4581EC0B2FBF7B0FA002800D19B
:104FB400FCE443780A93022B00D0F7E40121C3797F
:104FC4009A115B110A400B4052011B0113435246D4
:104FD40012782F318A43134352461370092399469A
:104FE40081444F46C37882781B021343C318099344
:104FF4009A4B059507939A4B0B939A4B0C939A4BA8
:105004000D93099BBB4200D813E101227B780692E1
:105014000B2B04D1FB7806933B78FF187B78042B89
:105024004FD1099B0B9ADB1B9BB29946079B1B78BC
:10503400002A29D00022002690461CE0F31ADBB295
:10504400022B00D903E15A00D3180C9ADB009D18F7
:105054004A4639005846AB689847082803D94B4656
:10506400834200D3AFE0079B01361B78F6B29A1C4B
:10507400B046B24225DBB342E0D90D9A73001568FD
:105084009B19DB00ED18E3E70023764E98463300C6
:105094004646B8461F00032E00D1D8E04A46414692
:1050A4005846BB683D009847082803D94B468342BD
:1050B40000D3C6E0079B01361B78183702339E42A3
:1050C400E9DD059D72E45846FFF7D6F8B378644AE3
:1050D400624E059300213378002A35D0624A614F2D
:1050E40091462A000D0090469D4226D3EB1ADAB26F
:1050F400022A3BD853009B18DB00DB195B68584637
:10510400984733780135EDB29A1CAA42ECDA454649
:10511400532200215046FEF7D9FC53461022D81CD6
:10512400FF21FEF7D3FC50462022FF211330FEF767
:10513400CDFC5346059A9A7077E64B466A001B6885
:105144005219D2009B18D9E7464B994600231F00F9
:105154004B4658465B68984718239C46337801377A
:105164000233E144BB42D3DB032FF1D100235B685C
:10517400FFDEFBF7C3F91223020010A9584600F022
:1051840099FA76E5394B002B01D1FFF70FFC00E0CB
:1051940000BF021E01D1FFF709FC5846137810A97D
:1051A40000F088FA65E52189FBF7B4F9021EF4D111
:1051B400FFF7FCFB2E4B002B01D1FFF7F7FBFBF7AE
:1051C400E7F9020086E6A9460500069B012B24D0D8
:1051D400069B002B11D00023B97805E0D67001336B
:1051E400069ADBB2934208D2CA18D2B25244D0789B
:1051F400FF28F3D0059DFFF7D9FB330039002A00BF
:105204001C4801F069F9079B7F191B780233434559
:1052140000DBF6E6059DFFF7C9FB4A46164B92688C
:105224009A42D8D10A9B0693D5E7FBF76FF902009F
:105234004DE6124B059D002B00D1FAE500E000BFBE
:10524400F7E54746A946B0460500F6B2BDE7002398
:105254009B68FFDE00235B69FFDEC046352A03201E
:1052640000000000A8950020BC9B00200000000066
:1052740051030020539E0020D1580020000000005C
:1052840030B587B06B4605000C00981C0A2200213B
:10529400FEF71CFC6B461D705C70042C4FD009D8C3
:1052A400022C34D0032C19D13C4A13785B0758D410
:1052B40007B030BD052C11D1384A1378DB07F7D578
:1052C400042113788B431370354B1C68E269EFF3A8
:1052D400108172B61368002B09D1FBE7304B1C68B0
:1052E400E269EFF3108172B61368002BFCD0BFF3B0
:1052F4005F8F21626946200001F036FAE269236A71
:10530400BFF35F8F0021116083F31088D0E7012180
:10531400224B1A788A431A701A780331A2431A70FE
:1053240000225A701A788A431A701D4B1C68E2696D
:10533400EFF3108172B61368002BD8D1FBE7174A3C
:105344001378DB07B4D5042113780B431370144B83
:105354001C68E269EFF3108172B61368002BC6D1A2
:10536400FBE704210E20137868448B43137000215B
:105374000A22FEF7ABFB6B466A461D730523537383
:10538400074B1C68E269EFF3108172B61368002BB7
:10539400FCD0BFF35F8F216203A9ACE7409E0020DD
:1053A400989E002070B584B06B4606000C000A225B
:1053B4000021981DFEF78AFB012301AD6B700E4B93
:1053C4002C711C682E70E269EFF3108372B61168B9
:1053D4000029FCD0BFF35F8F23622900200001F075
:1053E400C3F9E269236ABFF35F8F0021116083F37D
:1053F400108804B070BDC046989E0020002330B5CC
:1054040085B001AD6B8028700633082202A86B704A
:10541400FEF762FB0C4B1C68E269EFF3108372B673
:1054240011680029FCD0BFF35F8F2362290020009C
:1054340001F09AF9E269236ABFF35F8F00211160DA
:1054440083F3108805B030BD989E0020F0B5C646A1
:1054540000B584B01D006B4680460F001600002185
:105464000622981DFEF732FB434601AC2370072346
:1054740063700F4B65711D682771A660EA69EFF3CD
:10548400108372B611680029FCD0BFF35F8F2B62C2
:105494002100280001F068F9EA692B6ABFF35F8FE5
:1054A4000021116083F3108804B080BCB846F0BDBD
:1054B400989E0020F8B54E46DE4657464546E0B570
:1054C4001F000A9B83460C00161E994637D0702392
:1054D40098461C4B00259A4617E0534620009978BD
:1054E40000F0BAFF00281CD021005846FEF74CFEFD
:1054F400002816D0A378DA09012A19D04A46137075
:1055040023780135E418B54219DA6378052B08D1FC
:10551400E3789B079B0FBB4203D14246A3781A4210
:10552400DBD00020F0BCBB46B246A946A046F8BD7D
:105534000B9A013513702378E418B542E5DB01209A
:10554400F0E7C046409E0020702270B58B780500BD
:105554000C001A4201D0002070BD064B200099783F
:1055640000F07AFF0028F6D021002800FEF70CFE98
:10557400F2E7C046409E00207F2270B5154B0A40DA
:1055840052009C18C90964183034E378DB07DD0F36
:10559400002B18D1E3785B0701D5280070BD0121E9
:1055A4000D4E4942306803F0E1FDE378DB07DD0F7F
:1055B400002B0AD1E3785B0708D40422E3780125A1
:1055C4001343E37002E00025E7E70025306803F0A9
:1055D40011FEE2E7409E0020949E002070B50C006E
:1055E40001210F4D4942286803F0C0FD7F230D4A75
:1055F40023405B00E409D3181B193033DA78002404
:10560400D20708D4DA785207D40F002A03DA042127
:10561400DA788A43DA70286803F0ECFD200070BD64
:10562400949E0020409E002070B57F240E4D0C40B7
:1056340064002C19CE09A4193034E578ED0701D59E
:10564400002070BD0126E5783543E570FEF748FE7D
:105654000028F6D10122E3789343E370E378033220
:105664009343E370ECE7C046409E00207F22054B45
:105674000A405200C9099B185B183033D878C00718
:10568400C00F7047409E002070B5094C06000822E8
:1056940020000D00FEF720FA00238021E360A360C0
:1056A4002B783000994300220023FFF7BDFF70BD23
:1056B400189D0020F8B5CE4647469046264E80B544
:1056C4008146082230000D001F00FEF705FA43460C
:1056D400B3600023F381EC79AB7924021C43231CCF
:1056E400BC4200D93B1C9FB2B381002C0ED0002FCA
:1056F40018D04346002B2CD03B1C402F1BD89FB204
:1057040033787F2B1CD80021144A0FE080212B789A
:105714000022994348460023FFF786FFC0BCB946E0
:10572400B046F8BD7F230022317899433B004846B8
:10573400FFF77AFFF2E740239FB233787F2BE2D959
:10574400064C3A0041462000FEF7C6F980212200AB
:10575400ECE70020E2E7C046189D0020009E0020F0
:1057640010B5142200210248FEF7B0F910BDC0465E
:10577400189D0020014B18617047C046189D0020F9
:1057840010B5054C010008222000FEF7A5F90023FE
:10579400A360E36010BDC046189D002070B5394C6D
:1057A4001D0023780600DA09C9098A4213D00020B3
:1057B400002D00D070BD344B002B03D021003000ED
:1057C400FEF7D4FC2369002B03D022000221300011
:1057D40098470120EEE77F2B06D8A068002834D034
:1057E4002A002A49FEF778F9E289A1685219E38868
:1057F40092B24919E281A160934214D03F2D12D98B
:10580400A389981A051C80B240282AD82078ADB202
:105814007F2828D800219A4232D01C4A2B0030001D
:10582400FFF702FFC6E72369002B05D02200012100
:105834003000984700280AD0802123780022994319
:1058440030000023FFF7F0FEB4E70020B2E70021A8
:105854003000FEF757FD30008021FEF753FD012094
:10586400A8E74025D2E79A4207D0084C2A00200036
:10587400FEF732F980212200D0E780210022CDE713
:105884000022CBE7189D00202D3F0020009E002021
:1058940010B50400FEF750FF002801D1002010BD10
:1058A400FEF752FF0028F9D1AC2252006243034BA9
:1058B40001309B181B791840F1E7C046C09B0020BB
:1058C400AC235B00434310B50248181800F054FEA3
:1058D40010BDC046D09B0020F0B5AC256D004543FB
:1058E4002C00C646164F1034E41900B5200092B2BD
:1058F40000F0BAFE0600200000F056FE3F2803D850
:10590400300080BCB846F0BD7B190020D978984699
:10591400FFF732FE0028F3D0200000F045FE3F28B8
:1059240008D94346D835D978EA1940230020FFF72F
:105934007BFEE5E743460020D978FFF74FFEDFE71B
:10594400C09B0020F8B5AC256D0045432C00124ED9
:105954001034A419200000F0C3FF200000F024FE3E
:105964003F2800D8F8BD77190020F978FFF704FE26
:105974000028F7D0200000F017FE3F2807D9D835BB
:105984004023F978AA190020FFF74EFEEAE7F978D8
:105994000020FFF723FEE5E7C09B0020F8B50400D4
:1059A400FEF7CAFE002801D10020F8BDFEF7CCFEA8
:1059B4000028F9D1AC235B005C432500134E2C3541
:1059C400AD19280000F0D8FD0028EDD037190020CB
:1059D400B978FFF7D1FD0028E6D01934FF34A419B3
:1059E40021002800402200F03FFEB978051E08D0AF
:1059F400030022000020FFF717FE0028D4D028005F
:105A0400D3E70020FFF7EAFDCEE7C046C09B0020A5
:105A140070B5AC2464004443094B0500E41820002D
:105A240092B200F0DDFE0600200000F0A5FD3F2844
:105A340001D8300070BD2800FFF7B0FFF9E7C04679
:105A4400EC9B0020AC235B00434310B502481818BC
:105A540000F0AAFD10BDC046EC9B0020AC235B0007
:105A6400434310B50248181800F03AFF10BDC04671
:105A7400EC9B0020AC2270B5184C82B000212000B1
:105A84005200FEF723F8FF236371154B0025E380D2
:105A94000126082321002000268123734022483157
:105AA4000095073B103000F02DFD009621002000EA
:105AB4002600012340228831C8362C3000F022FD14
:105AC4003000FCF75BFFA6622600D036300065622A
